{
  "_format": "hh-sol-artifact-1",
  "contractName": "Random",
  "sourceName": "contracts/Random.sol",
  "abi": [
    {
      "inputs": [
        {
          "internalType": "uint64",
          "name": "subscriptionId",
          "type": "uint64"
        },
        {
          "internalType": "address",
          "name": "vrfCoordinator",
          "type": "address"
        },
        {
          "internalType": "bytes32",
          "name": "keyHash",
          "type": "bytes32"
        }
      ],
      "stateMutability": "nonpayable",
      "type": "constructor"
    },
    {
      "inputs": [
        {
          "internalType": "address",
          "name": "sender",
          "type": "address"
        },
        {
          "internalType": "uint256",
          "name": "tokenId",
          "type": "uint256"
        },
        {
          "internalType": "address",
          "name": "owner",
          "type": "address"
        }
      ],
      "name": "ERC721IncorrectOwner",
      "type": "error"
    },
    {
      "inputs": [
        {
          "internalType": "address",
          "name": "operator",
          "type": "address"
        },
        {
          "internalType": "uint256",
          "name": "tokenId",
          "type": "uint256"
        }
      ],
      "name": "ERC721InsufficientApproval",
      "type": "error"
    },
    {
      "inputs": [
        {
          "internalType": "address",
          "name": "approver",
          "type": "address"
        }
      ],
      "name": "ERC721InvalidApprover",
      "type": "error"
    },
    {
      "inputs": [
        {
          "internalType": "address",
          "name": "operator",
          "type": "address"
        }
      ],
      "name": "ERC721InvalidOperator",
      "type": "error"
    },
    {
      "inputs": [
        {
          "internalType": "address",
          "name": "owner",
          "type": "address"
        }
      ],
      "name": "ERC721InvalidOwner",
      "type": "error"
    },
    {
      "inputs": [
        {
          "internalType": "address",
          "name": "receiver",
          "type": "address"
        }
      ],
      "name": "ERC721InvalidReceiver",
      "type": "error"
    },
    {
      "inputs": [
        {
          "internalType": "address",
          "name": "sender",
          "type": "address"
        }
      ],
      "name": "ERC721InvalidSender",
      "type": "error"
    },
    {
      "inputs": [
        {
          "internalType": "uint256",
          "name": "tokenId",
          "type": "uint256"
        }
      ],
      "name": "ERC721NonexistentToken",
      "type": "error"
    },
    {
      "inputs": [
        {
          "internalType": "address",
          "name": "have",
          "type": "address"
        },
        {
          "internalType": "address",
          "name": "want",
          "type": "address"
        }
      ],
      "name": "OnlyCoordinatorCanFulfill",
      "type": "error"
    },
    {
      "anonymous": false,
      "inputs": [
        {
          "indexed": true,
          "internalType": "address",
          "name": "owner",
          "type": "address"
        },
        {
          "indexed": true,
          "internalType": "address",
          "name": "approved",
          "type": "address"
        },
        {
          "indexed": true,
          "internalType": "uint256",
          "name": "tokenId",
          "type": "uint256"
        }
      ],
      "name": "Approval",
      "type": "event"
    },
    {
      "anonymous": false,
      "inputs": [
        {
          "indexed": true,
          "internalType": "address",
          "name": "owner",
          "type": "address"
        },
        {
          "indexed": true,
          "internalType": "address",
          "name": "operator",
          "type": "address"
        },
        {
          "indexed": false,
          "internalType": "bool",
          "name": "approved",
          "type": "bool"
        }
      ],
      "name": "ApprovalForAll",
      "type": "event"
    },
    {
      "anonymous": false,
      "inputs": [
        {
          "indexed": false,
          "internalType": "uint256",
          "name": "_fromTokenId",
          "type": "uint256"
        },
        {
          "indexed": false,
          "internalType": "uint256",
          "name": "_toTokenId",
          "type": "uint256"
        }
      ],
      "name": "BatchMetadataUpdate",
      "type": "event"
    },
    {
      "anonymous": false,
      "inputs": [
        {
          "indexed": false,
          "internalType": "uint256",
          "name": "_tokenId",
          "type": "uint256"
        }
      ],
      "name": "MetadataUpdate",
      "type": "event"
    },
    {
      "anonymous": false,
      "inputs": [
        {
          "indexed": false,
          "internalType": "address",
          "name": "from",
          "type": "address"
        },
        {
          "indexed": false,
          "internalType": "address",
          "name": "to",
          "type": "address"
        },
        {
          "indexed": false,
          "internalType": "uint256",
          "name": "tokenId",
          "type": "uint256"
        }
      ],
      "name": "Minted",
      "type": "event"
    },
    {
      "anonymous": false,
      "inputs": [
        {
          "indexed": false,
          "internalType": "uint256",
          "name": "requestId",
          "type": "uint256"
        },
        {
          "indexed": false,
          "internalType": "uint256",
          "name": "randomWord",
          "type": "uint256"
        }
      ],
      "name": "RequestFulfilled",
      "type": "event"
    },
    {
      "anonymous": false,
      "inputs": [
        {
          "indexed": false,
          "internalType": "uint256",
          "name": "requestId",
          "type": "uint256"
        },
        {
          "indexed": false,
          "internalType": "uint32",
          "name": "numWords",
          "type": "uint32"
        }
      ],
      "name": "RequestSent",
      "type": "event"
    },
    {
      "anonymous": false,
      "inputs": [
        {
          "indexed": true,
          "internalType": "address",
          "name": "from",
          "type": "address"
        },
        {
          "indexed": true,
          "internalType": "address",
          "name": "to",
          "type": "address"
        },
        {
          "indexed": true,
          "internalType": "uint256",
          "name": "tokenId",
          "type": "uint256"
        }
      ],
      "name": "Transfer",
      "type": "event"
    },
    {
      "anonymous": false,
      "inputs": [
        {
          "indexed": false,
          "internalType": "address",
          "name": "to",
          "type": "address"
        },
        {
          "indexed": false,
          "internalType": "uint256",
          "name": "id",
          "type": "uint256"
        }
      ],
      "name": "Transfered",
      "type": "event"
    },
    {
      "inputs": [
        {
          "internalType": "address",
          "name": "to",
          "type": "address"
        },
        {
          "internalType": "uint256",
          "name": "tokenId",
          "type": "uint256"
        }
      ],
      "name": "approve",
      "outputs": [],
      "stateMutability": "nonpayable",
      "type": "function"
    },
    {
      "inputs": [
        {
          "internalType": "address",
          "name": "owner",
          "type": "address"
        }
      ],
      "name": "balanceOf",
      "outputs": [
        {
          "internalType": "uint256",
          "name": "",
          "type": "uint256"
        }
      ],
      "stateMutability": "view",
      "type": "function"
    },
    {
      "inputs": [
        {
          "internalType": "uint256",
          "name": "tokenId",
          "type": "uint256"
        }
      ],
      "name": "getApproved",
      "outputs": [
        {
          "internalType": "address",
          "name": "",
          "type": "address"
        }
      ],
      "stateMutability": "view",
      "type": "function"
    },
    {
      "inputs": [
        {
          "internalType": "address",
          "name": "owner",
          "type": "address"
        },
        {
          "internalType": "address",
          "name": "operator",
          "type": "address"
        }
      ],
      "name": "isApprovedForAll",
      "outputs": [
        {
          "internalType": "bool",
          "name": "",
          "type": "bool"
        }
      ],
      "stateMutability": "view",
      "type": "function"
    },
    {
      "inputs": [],
      "name": "lastRequestId",
      "outputs": [
        {
          "internalType": "uint256",
          "name": "",
          "type": "uint256"
        }
      ],
      "stateMutability": "view",
      "type": "function"
    },
    {
      "inputs": [
        {
          "internalType": "address",
          "name": "_to",
          "type": "address"
        },
        {
          "internalType": "string",
          "name": "_uri",
          "type": "string"
        }
      ],
      "name": "mintTicket",
      "outputs": [],
      "stateMutability": "payable",
      "type": "function"
    },
    {
      "inputs": [],
      "name": "name",
      "outputs": [
        {
          "internalType": "string",
          "name": "",
          "type": "string"
        }
      ],
      "stateMutability": "view",
      "type": "function"
    },
    {
      "inputs": [
        {
          "internalType": "uint256",
          "name": "_id",
          "type": "uint256"
        }
      ],
      "name": "nftTransfer",
      "outputs": [],
      "stateMutability": "nonpayable",
      "type": "function"
    },
    {
      "inputs": [
        {
          "internalType": "uint256",
          "name": "tokenId",
          "type": "uint256"
        }
      ],
      "name": "ownerOf",
      "outputs": [
        {
          "internalType": "address",
          "name": "",
          "type": "address"
        }
      ],
      "stateMutability": "view",
      "type": "function"
    },
    {
      "inputs": [],
      "name": "randomWinner",
      "outputs": [
        {
          "internalType": "uint256",
          "name": "",
          "type": "uint256"
        }
      ],
      "stateMutability": "nonpayable",
      "type": "function"
    },
    {
      "inputs": [
        {
          "internalType": "uint256",
          "name": "requestId",
          "type": "uint256"
        },
        {
          "internalType": "uint256[]",
          "name": "randomWords",
          "type": "uint256[]"
        }
      ],
      "name": "rawFulfillRandomWords",
      "outputs": [],
      "stateMutability": "nonpayable",
      "type": "function"
    },
    {
      "inputs": [],
      "name": "requestId",
      "outputs": [
        {
          "internalType": "uint256",
          "name": "",
          "type": "uint256"
        }
      ],
      "stateMutability": "view",
      "type": "function"
    },
    {
      "inputs": [
        {
          "internalType": "uint256",
          "name": "",
          "type": "uint256"
        }
      ],
      "name": "requestIds",
      "outputs": [
        {
          "internalType": "uint256",
          "name": "",
          "type": "uint256"
        }
      ],
      "stateMutability": "view",
      "type": "function"
    },
    {
      "inputs": [
        {
          "internalType": "uint256",
          "name": "",
          "type": "uint256"
        }
      ],
      "name": "s_requests",
      "outputs": [
        {
          "internalType": "bool",
          "name": "fulfilled",
          "type": "bool"
        },
        {
          "internalType": "bool",
          "name": "exists",
          "type": "bool"
        },
        {
          "internalType": "uint256",
          "name": "randomWord",
          "type": "uint256"
        }
      ],
      "stateMutability": "view",
      "type": "function"
    },
    {
      "inputs": [
        {
          "internalType": "address",
          "name": "from",
          "type": "address"
        },
        {
          "internalType": "address",
          "name": "to",
          "type": "address"
        },
        {
          "internalType": "uint256",
          "name": "tokenId",
          "type": "uint256"
        }
      ],
      "name": "safeTransferFrom",
      "outputs": [],
      "stateMutability": "nonpayable",
      "type": "function"
    },
    {
      "inputs": [
        {
          "internalType": "address",
          "name": "from",
          "type": "address"
        },
        {
          "internalType": "address",
          "name": "to",
          "type": "address"
        },
        {
          "internalType": "uint256",
          "name": "tokenId",
          "type": "uint256"
        },
        {
          "internalType": "bytes",
          "name": "data",
          "type": "bytes"
        }
      ],
      "name": "safeTransferFrom",
      "outputs": [],
      "stateMutability": "nonpayable",
      "type": "function"
    },
    {
      "inputs": [
        {
          "internalType": "address",
          "name": "operator",
          "type": "address"
        },
        {
          "internalType": "bool",
          "name": "approved",
          "type": "bool"
        }
      ],
      "name": "setApprovalForAll",
      "outputs": [],
      "stateMutability": "nonpayable",
      "type": "function"
    },
    {
      "inputs": [
        {
          "internalType": "bytes4",
          "name": "interfaceId",
          "type": "bytes4"
        }
      ],
      "name": "supportsInterface",
      "outputs": [
        {
          "internalType": "bool",
          "name": "",
          "type": "bool"
        }
      ],
      "stateMutability": "view",
      "type": "function"
    },
    {
      "inputs": [],
      "name": "symbol",
      "outputs": [
        {
          "internalType": "string",
          "name": "",
          "type": "string"
        }
      ],
      "stateMutability": "view",
      "type": "function"
    },
    {
      "inputs": [
        {
          "internalType": "uint256",
          "name": "",
          "type": "uint256"
        }
      ],
      "name": "ticketOwners",
      "outputs": [
        {
          "internalType": "address",
          "name": "",
          "type": "address"
        }
      ],
      "stateMutability": "view",
      "type": "function"
    },
    {
      "inputs": [
        {
          "internalType": "address",
          "name": "",
          "type": "address"
        }
      ],
      "name": "ticketsMint",
      "outputs": [
        {
          "internalType": "uint256",
          "name": "",
          "type": "uint256"
        }
      ],
      "stateMutability": "view",
      "type": "function"
    },
    {
      "inputs": [
        {
          "internalType": "uint256",
          "name": "tokenId",
          "type": "uint256"
        }
      ],
      "name": "tokenURI",
      "outputs": [
        {
          "internalType": "string",
          "name": "",
          "type": "string"
        }
      ],
      "stateMutability": "view",
      "type": "function"
    },
    {
      "inputs": [
        {
          "internalType": "address",
          "name": "from",
          "type": "address"
        },
        {
          "internalType": "address",
          "name": "to",
          "type": "address"
        },
        {
          "internalType": "uint256",
          "name": "tokenId",
          "type": "uint256"
        }
      ],
      "name": "transferFrom",
      "outputs": [],
      "stateMutability": "nonpayable",
      "type": "function"
    }
  ],
  "bytecode": "0x61010060405264e8d4a51000600f55600160105534801561001f57600080fd5b50604051613ca6380380613ca68339818101604052810190610041919061027f565b6040518060400160405280600681526020017f5469636b657400000000000000000000000000000000000000000000000000008152506040518060400160405280600381526020017f54434b0000000000000000000000000000000000000000000000000000000000815250838073ffffffffffffffffffffffffffffffffffffffff1660808173ffffffffffffffffffffffffffffffffffffffff16815250505081600090816100f29190610522565b5080600190816101029190610522565b5050508173ffffffffffffffffffffffffffffffffffffffff1660a08173ffffffffffffffffffffffffffffffffffffffff16815250508060e0818152505033600960006101000a81548173ffffffffffffffffffffffffffffffffffffffff021916908373ffffffffffffffffffffffffffffffffffffffff1602179055508267ffffffffffffffff1660c08167ffffffffffffffff16815250505050506105f4565b600080fd5b600067ffffffffffffffff82169050919050565b6101c8816101ab565b81146101d357600080fd5b50565b6000815190506101e5816101bf565b92915050565b600073ffffffffffffffffffffffffffffffffffffffff82169050919050565b6000610216826101eb565b9050919050565b6102268161020b565b811461023157600080fd5b50565b6000815190506102438161021d565b92915050565b6000819050919050565b61025c81610249565b811461026757600080fd5b50565b60008151905061027981610253565b92915050565b600080600060608486031215610298576102976101a6565b5b60006102a6868287016101d6565b93505060206102b786828701610234565b92505060406102c88682870161026a565b9150509250925092565b600081519050919050565b7f4e487b7100000000000000000000000000000000000000000000000000000000600052604160045260246000fd5b7f4e487b7100000000000000000000000000000000000000000000000000000000600052602260045260246000fd5b6000600282049050600182168061035357607f821691505b6020821081036103665761036561030c565b5b50919050565b60008190508160005260206000209050919050565b60006020601f8301049050919050565b600082821b905092915050565b6000600883026103ce7fffffffffffffffffffffffffffffffffffffffffffffffffffffffffffffffff82610391565b6103d88683610391565b95508019841693508086168417925050509392505050565b6000819050919050565b6000819050919050565b600061041f61041a610415846103f0565b6103fa565b6103f0565b9050919050565b6000819050919050565b61043983610404565b61044d61044582610426565b84845461039e565b825550505050565b600090565b610462610455565b61046d818484610430565b505050565b5b818110156104915761048660008261045a565b600181019050610473565b5050565b601f8211156104d6576104a78161036c565b6104b084610381565b810160208510156104bf578190505b6104d36104cb85610381565b830182610472565b50505b505050565b600082821c905092915050565b60006104f9600019846008026104db565b1980831691505092915050565b600061051283836104e8565b9150826002028217905092915050565b61052b826102d2565b67ffffffffffffffff811115610544576105436102dd565b5b61054e825461033b565b610559828285610495565b600060209050601f83116001811461058c576000841561057a578287015190505b6105848582610506565b8655506105ec565b601f19841661059a8661036c565b60005b828110156105c25784890151825560018201915060208501945060208101905061059d565b868310156105df57848901516105db601f8916826104e8565b8355505b6001600288020188555050505b505050505050565b60805160a05160c05160e0516136726106346000396000610f7001526000610f9101526000610f3401526000818161069801526106ec01526136726000f3fe60806040526004361061013f5760003560e01c806370a08231116100b6578063b88d4fde1161006f578063b88d4fde14610484578063c87b56dd146104ad578063e985e9c5146104ea578063eb2dbcf614610527578063f994709c14610564578063fc2a88c31461058f5761013f565b806370a082311461033a5780638796ba8c1461037757806395d89b41146103b4578063a168fa89146103df578063a22cb4651461041e578063b05f2ab7146104475761013f565b80631fe543e3116101085780631fe543e31461023d57806323b872dd1461026657806342842e0e1461028f5780635388842c146102b85780635ec0e964146102d45780636352211e146102fd5761013f565b80626d6cae1461014457806301ffc9a71461016f57806306fdde03146101ac578063081812fc146101d7578063095ea7b314610214575b600080fd5b34801561015057600080fd5b506101596105ba565b60405161016691906124e1565b60405180910390f35b34801561017b57600080fd5b5061019660048036038101906101919190612568565b6105c0565b6040516101a391906125b0565b60405180910390f35b3480156101b857600080fd5b506101c16105d2565b6040516101ce919061265b565b60405180910390f35b3480156101e357600080fd5b506101fe60048036038101906101f991906126a9565b610664565b60405161020b9190612717565b60405180910390f35b34801561022057600080fd5b5061023b6004803603810190610236919061275e565b610680565b005b34801561024957600080fd5b50610264600480360381019061025f91906128e6565b610696565b005b34801561027257600080fd5b5061028d60048036038101906102889190612942565b610756565b005b34801561029b57600080fd5b506102b660048036038101906102b19190612942565b610858565b005b6102d260048036038101906102cd9190612a4a565b610878565b005b3480156102e057600080fd5b506102fb60048036038101906102f691906126a9565b610a46565b005b34801561030957600080fd5b50610324600480360381019061031f91906126a9565b610bd8565b6040516103319190612717565b60405180910390f35b34801561034657600080fd5b50610361600480360381019061035c9190612aa6565b610bea565b60405161036e91906124e1565b60405180910390f35b34801561038357600080fd5b5061039e600480360381019061039991906126a9565b610ca4565b6040516103ab91906124e1565b60405180910390f35b3480156103c057600080fd5b506103c9610cc8565b6040516103d6919061265b565b60405180910390f35b3480156103eb57600080fd5b50610406600480360381019061040191906126a9565b610d5a565b60405161041593929190612ad3565b60405180910390f35b34801561042a57600080fd5b5061044560048036038101906104409190612b36565b610d9e565b005b34801561045357600080fd5b5061046e60048036038101906104699190612aa6565b610db4565b60405161047b91906124e1565b60405180910390f35b34801561049057600080fd5b506104ab60048036038101906104a69190612c17565b610dcc565b005b3480156104b957600080fd5b506104d460048036038101906104cf91906126a9565b610df1565b6040516104e1919061265b565b60405180910390f35b3480156104f657600080fd5b50610511600480360381019061050c9190612c9a565b610e03565b60405161051e91906125b0565b60405180910390f35b34801561053357600080fd5b5061054e600480360381019061054991906126a9565b610e97565b60405161055b9190612717565b60405180910390f35b34801561057057600080fd5b50610579610ed6565b60405161058691906124e1565b60405180910390f35b34801561059b57600080fd5b506105a461111d565b6040516105b191906124e1565b60405180910390f35b60085481565b60006105cb82611123565b9050919050565b6060600080546105e190612d09565b80601f016020809104026020016040519081016040528092919081815260200182805461060d90612d09565b801561065a5780601f1061062f5761010080835404028352916020019161065a565b820191906000526020600020905b81548152906001019060200180831161063d57829003601f168201915b5050505050905090565b600061066f82611184565b506106798261120c565b9050919050565b610692828261068d611249565b611251565b5050565b7f000000000000000000000000000000000000000000000000000000000000000073ffffffffffffffffffffffffffffffffffffffff163373ffffffffffffffffffffffffffffffffffffffff161461074857337f00000000000000000000000000000000000000000000000000000000000000006040517f1cf993f400000000000000000000000000000000000000000000000000000000815260040161073f929190612d3a565b60405180910390fd5b6107528282611263565b5050565b600073ffffffffffffffffffffffffffffffffffffffff168273ffffffffffffffffffffffffffffffffffffffff16036107c85760006040517f64a0ae920000000000000000000000000000000000000000000000000000000081526004016107bf9190612717565b60405180910390fd5b60006107dc83836107d7611249565b611403565b90508373ffffffffffffffffffffffffffffffffffffffff168173ffffffffffffffffffffffffffffffffffffffff1614610852578382826040517f64283d7b00000000000000000000000000000000000000000000000000000000815260040161084993929190612d63565b60405180910390fd5b50505050565b61087383838360405180602001604052806000815250610dcc565b505050565b600073ffffffffffffffffffffffffffffffffffffffff168273ffffffffffffffffffffffffffffffffffffffff16036108e7576040517f08c379a00000000000000000000000000000000000000000000000000000000081526004016108de90612de6565b60405180910390fd5b600f5434101561092c576040517f08c379a000000000000000000000000000000000000000000000000000000000815260040161092390612e52565b60405180910390fd5b6109388260105461161d565b6109446010548261163b565b601054600c60008473ffffffffffffffffffffffffffffffffffffffff1673ffffffffffffffffffffffffffffffffffffffff16815260200190815260200160002081905550600e829080600181540180825580915050600190039060005260206000200160009091909190916101000a81548173ffffffffffffffffffffffffffffffffffffffff021916908373ffffffffffffffffffffffffffffffffffffffff1602179055507f9d228d69b5fdb8d273a2336f8fb8612d039631024ea9bf09c424a9503aa078f03383601054604051610a2293929190612e72565b60405180910390a160106000815480929190610a3d90612ed8565b91905055505050565b3373ffffffffffffffffffffffffffffffffffffffff16610a6682610bd8565b73ffffffffffffffffffffffffffffffffffffffff1614610abc576040517f08c379a0000000000000000000000000000000000000000000000000000000008152600401610ab390612f6c565b60405180910390fd5b600073ffffffffffffffffffffffffffffffffffffffff16600d60009054906101000a900473ffffffffffffffffffffffffffffffffffffffff1673ffffffffffffffffffffffffffffffffffffffff1603610b4d576040517f08c379a0000000000000000000000000000000000000000000000000000000008152600401610b4490612fd8565b60405180910390fd5b610b7a33600d60009054906101000a900473ffffffffffffffffffffffffffffffffffffffff1683611697565b7f419013ffbfd3a7e95a13645088f1f9b8aff6057aaa2a840cc18ddbbec3d1677c600d60009054906101000a900473ffffffffffffffffffffffffffffffffffffffff1682604051610bcd929190612ff8565b60405180910390a150565b6000610be382611184565b9050919050565b60008073ffffffffffffffffffffffffffffffffffffffff168273ffffffffffffffffffffffffffffffffffffffff1603610c5d5760006040517f89c62b64000000000000000000000000000000000000000000000000000000008152600401610c549190612717565b60405180910390fd5b600360008373ffffffffffffffffffffffffffffffffffffffff1673ffffffffffffffffffffffffffffffffffffffff168152602001908152602001600020549050919050565b600a8181548110610cb457600080fd5b906000526020600020016000915090505481565b606060018054610cd790612d09565b80601f0160208091040260200160405190810160405280929190818152602001828054610d0390612d09565b8015610d505780601f10610d2557610100808354040283529160200191610d50565b820191906000526020600020905b815481529060010190602001808311610d3357829003601f168201915b5050505050905090565b60076020528060005260406000206000915090508060000160009054906101000a900460ff16908060000160019054906101000a900460ff16908060010154905083565b610db0610da9611249565b8383611804565b5050565b600c6020528060005260406000206000915090505481565b610dd7848484610756565b610deb610de2611249565b85858585611973565b50505050565b6060610dfc82611b24565b9050919050565b6000600560008473ffffffffffffffffffffffffffffffffffffffff1673ffffffffffffffffffffffffffffffffffffffff16815260200190815260200160002060008373ffffffffffffffffffffffffffffffffffffffff1673ffffffffffffffffffffffffffffffffffffffff16815260200190815260200160002060009054906101000a900460ff16905092915050565b600e8181548110610ea757600080fd5b906000526020600020016000915054906101000a900473ffffffffffffffffffffffffffffffffffffffff1681565b6000600960009054906101000a900473ffffffffffffffffffffffffffffffffffffffff1673ffffffffffffffffffffffffffffffffffffffff163373ffffffffffffffffffffffffffffffffffffffff1614610f3257600080fd5b7f000000000000000000000000000000000000000000000000000000000000000073ffffffffffffffffffffffffffffffffffffffff16635d3b1d307f00000000000000000000000000000000000000000000000000000000000000007f00000000000000000000000000000000000000000000000000000000000000006003620186a060016040518663ffffffff1660e01b8152600401610fd8959493929190613099565b6020604051808303816000875af1158015610ff7573d6000803e3d6000fd5b505050506040513d601f19601f8201168201806040525081019061101b9190613101565b6008819055506040518060600160405280600015158152602001600115158152602001600081525060076000600854815260200190815260200160002060008201518160000160006101000a81548160ff02191690831515021790555060208201518160000160016101000a81548160ff02191690831515021790555060408201518160010155905050600a6008549080600181540180825580915050600190039060005260206000200160009091909190915055600854600b819055507fcc58b13ad3eab50626c6a6300b1d139cd6ebb1688a7cced9461c2f7e762665ee600854600160405161110d92919061312e565b60405180910390a1600854905090565b600b5481565b6000634906490660e01b7bffffffffffffffffffffffffffffffffffffffffffffffffffffffff1916827bffffffffffffffffffffffffffffffffffffffffffffffffffffffff1916148061117d575061117c82611c37565b5b9050919050565b60008061119083611d19565b9050600073ffffffffffffffffffffffffffffffffffffffff168173ffffffffffffffffffffffffffffffffffffffff160361120357826040517f7e2732890000000000000000000000000000000000000000000000000000000081526004016111fa91906124e1565b60405180910390fd5b80915050919050565b60006004600083815260200190815260200160002060009054906101000a900473ffffffffffffffffffffffffffffffffffffffff169050919050565b600033905090565b61125e8383836001611d56565b505050565b6007600083815260200190815260200160002060000160019054906101000a900460ff166112c6576040517f08c379a00000000000000000000000000000000000000000000000000000000081526004016112bd906131a3565b60405180910390fd5b60016007600084815260200190815260200160002060000160006101000a81548160ff02191690831515021790555060008160008151811061130b5761130a6131c3565b5b602002602001015190508060076000858152602001908152602001600020600101819055507f5c69e7026b653d8606b5613bb00fd8c4b0504b1cbe8db600c406faac180924d583826040516113619291906131f2565b60405180910390a16000600e805490508261137c919061324a565b9050600e8181548110611392576113916131c3565b5b9060005260206000200160009054906101000a900473ffffffffffffffffffffffffffffffffffffffff16600d60006101000a81548173ffffffffffffffffffffffffffffffffffffffff021916908373ffffffffffffffffffffffffffffffffffffffff16021790555050505050565b60008061140f84611d19565b9050600073ffffffffffffffffffffffffffffffffffffffff168373ffffffffffffffffffffffffffffffffffffffff161461145157611450818486611f1b565b5b600073ffffffffffffffffffffffffffffffffffffffff168173ffffffffffffffffffffffffffffffffffffffff16146114e257611493600085600080611d56565b6001600360008373ffffffffffffffffffffffffffffffffffffffff1673ffffffffffffffffffffffffffffffffffffffff168152602001908152602001600020600082825403925050819055505b600073ffffffffffffffffffffffffffffffffffffffff168573ffffffffffffffffffffffffffffffffffffffff1614611565576001600360008773ffffffffffffffffffffffffffffffffffffffff1673ffffffffffffffffffffffffffffffffffffffff168152602001908152602001600020600082825401925050819055505b846002600086815260200190815260200160002060006101000a81548173ffffffffffffffffffffffffffffffffffffffff021916908373ffffffffffffffffffffffffffffffffffffffff160217905550838573ffffffffffffffffffffffffffffffffffffffff168273ffffffffffffffffffffffffffffffffffffffff167fddf252ad1be2c89b69c2b068fc378daa952ba7f163c4a11628f55a4df523b3ef60405160405180910390a4809150509392505050565b611637828260405180602001604052806000815250611fdf565b5050565b8060066000848152602001908152602001600020908161165b9190613427565b507ff8e1a15aba9398e019f0b49df1a4fde98ee17ae345cb5f6b5e2c27f5033e8ce78260405161168b91906124e1565b60405180910390a15050565b600073ffffffffffffffffffffffffffffffffffffffff168273ffffffffffffffffffffffffffffffffffffffff16036117095760006040517f64a0ae920000000000000000000000000000000000000000000000000000000081526004016117009190612717565b60405180910390fd5b600061171783836000611403565b9050600073ffffffffffffffffffffffffffffffffffffffff168173ffffffffffffffffffffffffffffffffffffffff160361178a57816040517f7e27328900000000000000000000000000000000000000000000000000000000815260040161178191906124e1565b60405180910390fd5b8373ffffffffffffffffffffffffffffffffffffffff168173ffffffffffffffffffffffffffffffffffffffff16146117fe578382826040517f64283d7b0000000000000000000000000000000000000000000000000000000081526004016117f593929190612d63565b60405180910390fd5b50505050565b600073ffffffffffffffffffffffffffffffffffffffff168273ffffffffffffffffffffffffffffffffffffffff160361187557816040517f5b08ba1800000000000000000000000000000000000000000000000000000000815260040161186c9190612717565b60405180910390fd5b80600560008573ffffffffffffffffffffffffffffffffffffffff1673ffffffffffffffffffffffffffffffffffffffff16815260200190815260200160002060008473ffffffffffffffffffffffffffffffffffffffff1673ffffffffffffffffffffffffffffffffffffffff16815260200190815260200160002060006101000a81548160ff0219169083151502179055508173ffffffffffffffffffffffffffffffffffffffff168373ffffffffffffffffffffffffffffffffffffffff167f17307eab39ab6107e8899845ad3d59bd9653f200f220920489ca2b5937696c318360405161196691906125b0565b60405180910390a3505050565b60008373ffffffffffffffffffffffffffffffffffffffff163b1115611b1d578273ffffffffffffffffffffffffffffffffffffffff1663150b7a02868685856040518563ffffffff1660e01b81526004016119d2949392919061354e565b6020604051808303816000875af1925050508015611a0e57506040513d601f19601f82011682018060405250810190611a0b91906135af565b60015b611a92573d8060008114611a3e576040519150601f19603f3d011682016040523d82523d6000602084013e611a43565b606091505b506000815103611a8a57836040517f64a0ae92000000000000000000000000000000000000000000000000000000008152600401611a819190612717565b60405180910390fd5b805181602001fd5b63150b7a0260e01b7bffffffffffffffffffffffffffffffffffffffffffffffffffffffff1916817bffffffffffffffffffffffffffffffffffffffffffffffffffffffff191614611b1b57836040517f64a0ae92000000000000000000000000000000000000000000000000000000008152600401611b129190612717565b60405180910390fd5b505b5050505050565b6060611b2f82611184565b506000600660008481526020019081526020016000208054611b5090612d09565b80601f0160208091040260200160405190810160405280929190818152602001828054611b7c90612d09565b8015611bc95780601f10611b9e57610100808354040283529160200191611bc9565b820191906000526020600020905b815481529060010190602001808311611bac57829003601f168201915b505050505090506000611bda612003565b90506000815103611bef578192505050611c32565b600082511115611c24578082604051602001611c0c929190613618565b60405160208183030381529060405292505050611c32565b611c2d8461201a565b925050505b919050565b60007f80ac58cd000000000000000000000000000000000000000000000000000000007bffffffffffffffffffffffffffffffffffffffffffffffffffffffff1916827bffffffffffffffffffffffffffffffffffffffffffffffffffffffff19161480611d0257507f5b5e139f000000000000000000000000000000000000000000000000000000007bffffffffffffffffffffffffffffffffffffffffffffffffffffffff1916827bffffffffffffffffffffffffffffffffffffffffffffffffffffffff1916145b80611d125750611d1182612083565b5b9050919050565b60006002600083815260200190815260200160002060009054906101000a900473ffffffffffffffffffffffffffffffffffffffff169050919050565b8080611d8f5750600073ffffffffffffffffffffffffffffffffffffffff168273ffffffffffffffffffffffffffffffffffffffff1614155b15611ec3576000611d9f84611184565b9050600073ffffffffffffffffffffffffffffffffffffffff168373ffffffffffffffffffffffffffffffffffffffff1614158015611e0a57508273ffffffffffffffffffffffffffffffffffffffff168173ffffffffffffffffffffffffffffffffffffffff1614155b8015611e1d5750611e1b8184610e03565b155b15611e5f57826040517fa9fbf51f000000000000000000000000000000000000000000000000000000008152600401611e569190612717565b60405180910390fd5b8115611ec157838573ffffffffffffffffffffffffffffffffffffffff168273ffffffffffffffffffffffffffffffffffffffff167f8c5be1e5ebec7d5bd14f71427d1e84f3dd0314c0f7b2291e5b200ac8c7c3b92560405160405180910390a45b505b836004600085815260200190815260200160002060006101000a81548173ffffffffffffffffffffffffffffffffffffffff021916908373ffffffffffffffffffffffffffffffffffffffff16021790555050505050565b611f268383836120ed565b611fda57600073ffffffffffffffffffffffffffffffffffffffff168373ffffffffffffffffffffffffffffffffffffffff1603611f9b57806040517f7e273289000000000000000000000000000000000000000000000000000000008152600401611f9291906124e1565b60405180910390fd5b81816040517f177e802f000000000000000000000000000000000000000000000000000000008152600401611fd1929190612ff8565b60405180910390fd5b505050565b611fe983836121ae565b611ffe611ff4611249565b6000858585611973565b505050565b606060405180602001604052806000815250905090565b606061202582611184565b506000612030612003565b90506000815111612050576040518060200160405280600081525061207b565b8061205a846122a7565b60405160200161206b929190613618565b6040516020818303038152906040525b915050919050565b60007f01ffc9a7000000000000000000000000000000000000000000000000000000007bffffffffffffffffffffffffffffffffffffffffffffffffffffffff1916827bffffffffffffffffffffffffffffffffffffffffffffffffffffffff1916149050919050565b60008073ffffffffffffffffffffffffffffffffffffffff168373ffffffffffffffffffffffffffffffffffffffff16141580156121a557508273ffffffffffffffffffffffffffffffffffffffff168473ffffffffffffffffffffffffffffffffffffffff16148061216657506121658484610e03565b5b806121a457508273ffffffffffffffffffffffffffffffffffffffff1661218c8361120c565b73ffffffffffffffffffffffffffffffffffffffff16145b5b90509392505050565b600073ffffffffffffffffffffffffffffffffffffffff168273ffffffffffffffffffffffffffffffffffffffff16036122205760006040517f64a0ae920000000000000000000000000000000000000000000000000000000081526004016122179190612717565b60405180910390fd5b600061222e83836000611403565b9050600073ffffffffffffffffffffffffffffffffffffffff168173ffffffffffffffffffffffffffffffffffffffff16146122a25760006040517f73c6ac6e0000000000000000000000000000000000000000000000000000000081526004016122999190612717565b60405180910390fd5b505050565b6060600060016122b684612375565b01905060008167ffffffffffffffff8111156122d5576122d46127a3565b5b6040519080825280601f01601f1916602001820160405280156123075781602001600182028036833780820191505090505b509050600082602001820190505b60011561236a578080600190039150507f3031323334353637383961626364656600000000000000000000000000000000600a86061a8153600a858161235e5761235d61321b565b5b04945060008503612315575b819350505050919050565b600080600090507a184f03e93ff9f4daa797ed6e38ed64bf6a1f01000000000000000083106123d3577a184f03e93ff9f4daa797ed6e38ed64bf6a1f01000000000000000083816123c9576123c861321b565b5b0492506040810190505b6d04ee2d6d415b85acef81000000008310612410576d04ee2d6d415b85acef810000000083816124065761240561321b565b5b0492506020810190505b662386f26fc10000831061243f57662386f26fc1000083816124355761243461321b565b5b0492506010810190505b6305f5e1008310612468576305f5e100838161245e5761245d61321b565b5b0492506008810190505b612710831061248d5761271083816124835761248261321b565b5b0492506004810190505b606483106124b057606483816124a6576124a561321b565b5b0492506002810190505b600a83106124bf576001810190505b80915050919050565b6000819050919050565b6124db816124c8565b82525050565b60006020820190506124f660008301846124d2565b92915050565b6000604051905090565b600080fd5b600080fd5b60007fffffffff0000000000000000000000000000000000000000000000000000000082169050919050565b61254581612510565b811461255057600080fd5b50565b6000813590506125628161253c565b92915050565b60006020828403121561257e5761257d612506565b5b600061258c84828501612553565b91505092915050565b60008115159050919050565b6125aa81612595565b82525050565b60006020820190506125c560008301846125a1565b92915050565b600081519050919050565b600082825260208201905092915050565b60005b838110156126055780820151818401526020810190506125ea565b60008484015250505050565b6000601f19601f8301169050919050565b600061262d826125cb565b61263781856125d6565b93506126478185602086016125e7565b61265081612611565b840191505092915050565b600060208201905081810360008301526126758184612622565b905092915050565b612686816124c8565b811461269157600080fd5b50565b6000813590506126a38161267d565b92915050565b6000602082840312156126bf576126be612506565b5b60006126cd84828501612694565b91505092915050565b600073ffffffffffffffffffffffffffffffffffffffff82169050919050565b6000612701826126d6565b9050919050565b612711816126f6565b82525050565b600060208201905061272c6000830184612708565b92915050565b61273b816126f6565b811461274657600080fd5b50565b60008135905061275881612732565b92915050565b6000806040838503121561277557612774612506565b5b600061278385828601612749565b925050602061279485828601612694565b9150509250929050565b600080fd5b7f4e487b7100000000000000000000000000000000000000000000000000000000600052604160045260246000fd5b6127db82612611565b810181811067ffffffffffffffff821117156127fa576127f96127a3565b5b80604052505050565b600061280d6124fc565b905061281982826127d2565b919050565b600067ffffffffffffffff821115612839576128386127a3565b5b602082029050602081019050919050565b600080fd5b600061286261285d8461281e565b612803565b905080838252602082019050602084028301858111156128855761288461284a565b5b835b818110156128ae578061289a8882612694565b845260208401935050602081019050612887565b5050509392505050565b600082601f8301126128cd576128cc61279e565b5b81356128dd84826020860161284f565b91505092915050565b600080604083850312156128fd576128fc612506565b5b600061290b85828601612694565b925050602083013567ffffffffffffffff81111561292c5761292b61250b565b5b612938858286016128b8565b9150509250929050565b60008060006060848603121561295b5761295a612506565b5b600061296986828701612749565b935050602061297a86828701612749565b925050604061298b86828701612694565b9150509250925092565b600080fd5b600067ffffffffffffffff8211156129b5576129b46127a3565b5b6129be82612611565b9050602081019050919050565b82818337600083830152505050565b60006129ed6129e88461299a565b612803565b905082815260208101848484011115612a0957612a08612995565b5b612a148482856129cb565b509392505050565b600082601f830112612a3157612a3061279e565b5b8135612a418482602086016129da565b91505092915050565b60008060408385031215612a6157612a60612506565b5b6000612a6f85828601612749565b925050602083013567ffffffffffffffff811115612a9057612a8f61250b565b5b612a9c85828601612a1c565b9150509250929050565b600060208284031215612abc57612abb612506565b5b6000612aca84828501612749565b91505092915050565b6000606082019050612ae860008301866125a1565b612af560208301856125a1565b612b0260408301846124d2565b949350505050565b612b1381612595565b8114612b1e57600080fd5b50565b600081359050612b3081612b0a565b92915050565b60008060408385031215612b4d57612b4c612506565b5b6000612b5b85828601612749565b9250506020612b6c85828601612b21565b9150509250929050565b600067ffffffffffffffff821115612b9157612b906127a3565b5b612b9a82612611565b9050602081019050919050565b6000612bba612bb584612b76565b612803565b905082815260208101848484011115612bd657612bd5612995565b5b612be18482856129cb565b509392505050565b600082601f830112612bfe57612bfd61279e565b5b8135612c0e848260208601612ba7565b91505092915050565b60008060008060808587031215612c3157612c30612506565b5b6000612c3f87828801612749565b9450506020612c5087828801612749565b9350506040612c6187828801612694565b925050606085013567ffffffffffffffff811115612c8257612c8161250b565b5b612c8e87828801612be9565b91505092959194509250565b60008060408385031215612cb157612cb0612506565b5b6000612cbf85828601612749565b9250506020612cd085828601612749565b9150509250929050565b7f4e487b7100000000000000000000000000000000000000000000000000000000600052602260045260246000fd5b60006002820490506001821680612d2157607f821691505b602082108103612d3457612d33612cda565b5b50919050565b6000604082019050612d4f6000830185612708565b612d5c6020830184612708565b9392505050565b6000606082019050612d786000830186612708565b612d8560208301856124d2565b612d926040830184612708565b949350505050565b7f696e76616c696420416464726573730000000000000000000000000000000000600082015250565b6000612dd0600f836125d6565b9150612ddb82612d9a565b602082019050919050565b60006020820190508181036000830152612dff81612dc3565b9050919050565b7f496e73756666696369656e742066756e647320746f2072656465656d00000000600082015250565b6000612e3c601c836125d6565b9150612e4782612e06565b602082019050919050565b60006020820190508181036000830152612e6b81612e2f565b9050919050565b6000606082019050612e876000830186612708565b612e946020830185612708565b612ea160408301846124d2565b949350505050565b7f4e487b7100000000000000000000000000000000000000000000000000000000600052601160045260246000fd5b6000612ee3826124c8565b91507fffffffffffffffffffffffffffffffffffffffffffffffffffffffffffffffff8203612f1557612f14612ea9565b5b600182019050919050565b7f596f7520646f206e6f74206f776e207468697320746f6b656e00000000000000600082015250565b6000612f566019836125d6565b9150612f6182612f20565b602082019050919050565b60006020820190508181036000830152612f8581612f49565b9050919050565b7f496e76616c696420616464726573730000000000000000000000000000000000600082015250565b6000612fc2600f836125d6565b9150612fcd82612f8c565b602082019050919050565b60006020820190508181036000830152612ff181612fb5565b9050919050565b600060408201905061300d6000830185612708565b61301a60208301846124d2565b9392505050565b6000819050919050565b61303481613021565b82525050565b600067ffffffffffffffff82169050919050565b6130578161303a565b82525050565b600061ffff82169050919050565b6130748161305d565b82525050565b600063ffffffff82169050919050565b6130938161307a565b82525050565b600060a0820190506130ae600083018861302b565b6130bb602083018761304e565b6130c8604083018661306b565b6130d5606083018561308a565b6130e2608083018461308a565b9695505050505050565b6000815190506130fb8161267d565b92915050565b60006020828403121561311757613116612506565b5b6000613125848285016130ec565b91505092915050565b600060408201905061314360008301856124d2565b613150602083018461308a565b9392505050565b7f72657175657374206e6f7420666f756e64000000000000000000000000000000600082015250565b600061318d6011836125d6565b915061319882613157565b602082019050919050565b600060208201905081810360008301526131bc81613180565b9050919050565b7f4e487b7100000000000000000000000000000000000000000000000000000000600052603260045260246000fd5b600060408201905061320760008301856124d2565b61321460208301846124d2565b9392505050565b7f4e487b7100000000000000000000000000000000000000000000000000000000600052601260045260246000fd5b6000613255826124c8565b9150613260836124c8565b9250826132705761326f61321b565b5b828206905092915050565b60008190508160005260206000209050919050565b60006020601f8301049050919050565b600082821b905092915050565b6000600883026132dd7fffffffffffffffffffffffffffffffffffffffffffffffffffffffffffffffff826132a0565b6132e786836132a0565b95508019841693508086168417925050509392505050565b6000819050919050565b600061332461331f61331a846124c8565b6132ff565b6124c8565b9050919050565b6000819050919050565b61333e83613309565b61335261334a8261332b565b8484546132ad565b825550505050565b600090565b61336761335a565b613372818484613335565b505050565b5b818110156133965761338b60008261335f565b600181019050613378565b5050565b601f8211156133db576133ac8161327b565b6133b584613290565b810160208510156133c4578190505b6133d86133d085613290565b830182613377565b50505b505050565b600082821c905092915050565b60006133fe600019846008026133e0565b1980831691505092915050565b600061341783836133ed565b9150826002028217905092915050565b613430826125cb565b67ffffffffffffffff811115613449576134486127a3565b5b6134538254612d09565b61345e82828561339a565b600060209050601f831160018114613491576000841561347f578287015190505b613489858261340b565b8655506134f1565b601f19841661349f8661327b565b60005b828110156134c7578489015182556001820191506020850194506020810190506134a2565b868310156134e457848901516134e0601f8916826133ed565b8355505b6001600288020188555050505b505050505050565b600081519050919050565b600082825260208201905092915050565b6000613520826134f9565b61352a8185613504565b935061353a8185602086016125e7565b61354381612611565b840191505092915050565b60006080820190506135636000830187612708565b6135706020830186612708565b61357d60408301856124d2565b818103606083015261358f8184613515565b905095945050505050565b6000815190506135a98161253c565b92915050565b6000602082840312156135c5576135c4612506565b5b60006135d38482850161359a565b91505092915050565b600081905092915050565b60006135f2826125cb565b6135fc81856135dc565b935061360c8185602086016125e7565b80840191505092915050565b600061362482856135e7565b915061363082846135e7565b9150819050939250505056fea26469706673582212208ae615addfeb1eae7efb536bd848aee1da601fd0367b114266049ce51953462e64736f6c634300081b0033",
  "linkReferences": {},
  "deployedLinkReferences": {}
}